{
  "address": "0xc5B4b0a27A9bdfa2573D46a028144Bc0801fF634",
  "abi": [
    {
      "inputs": [],
      "stateMutability": "nonpayable",
      "type": "constructor"
    },
    {
      "anonymous": false,
      "inputs": [
        {
          "indexed": true,
          "internalType": "address",
          "name": "owner",
          "type": "address"
        },
        {
          "indexed": true,
          "internalType": "address",
          "name": "approved",
          "type": "address"
        },
        {
          "indexed": true,
          "internalType": "uint256",
          "name": "tokenId",
          "type": "uint256"
        }
      ],
      "name": "Approval",
      "type": "event"
    },
    {
      "anonymous": false,
      "inputs": [
        {
          "indexed": true,
          "internalType": "address",
          "name": "owner",
          "type": "address"
        },
        {
          "indexed": true,
          "internalType": "address",
          "name": "operator",
          "type": "address"
        },
        {
          "indexed": false,
          "internalType": "bool",
          "name": "approved",
          "type": "bool"
        }
      ],
      "name": "ApprovalForAll",
      "type": "event"
    },
    {
      "anonymous": false,
      "inputs": [
        {
          "indexed": true,
          "internalType": "uint256",
          "name": "tokenId",
          "type": "uint256"
        },
        {
          "indexed": false,
          "internalType": "string",
          "name": "tokenURI",
          "type": "string"
        }
      ],
      "name": "CreatedSVGNFT",
      "type": "event"
    },
    {
      "anonymous": false,
      "inputs": [
        {
          "indexed": true,
          "internalType": "address",
          "name": "from",
          "type": "address"
        },
        {
          "indexed": true,
          "internalType": "address",
          "name": "to",
          "type": "address"
        },
        {
          "indexed": true,
          "internalType": "uint256",
          "name": "tokenId",
          "type": "uint256"
        }
      ],
      "name": "Transfer",
      "type": "event"
    },
    {
      "inputs": [
        {
          "internalType": "address",
          "name": "to",
          "type": "address"
        },
        {
          "internalType": "uint256",
          "name": "tokenId",
          "type": "uint256"
        }
      ],
      "name": "approve",
      "outputs": [],
      "stateMutability": "nonpayable",
      "type": "function"
    },
    {
      "inputs": [
        {
          "internalType": "address",
          "name": "owner",
          "type": "address"
        }
      ],
      "name": "balanceOf",
      "outputs": [
        {
          "internalType": "uint256",
          "name": "",
          "type": "uint256"
        }
      ],
      "stateMutability": "view",
      "type": "function"
    },
    {
      "inputs": [
        {
          "internalType": "string",
          "name": "_svg",
          "type": "string"
        }
      ],
      "name": "create",
      "outputs": [],
      "stateMutability": "nonpayable",
      "type": "function"
    },
    {
      "inputs": [
        {
          "internalType": "string",
          "name": "_imageURI",
          "type": "string"
        }
      ],
      "name": "formatTokenURI",
      "outputs": [
        {
          "internalType": "string",
          "name": "",
          "type": "string"
        }
      ],
      "stateMutability": "pure",
      "type": "function"
    },
    {
      "inputs": [
        {
          "internalType": "uint256",
          "name": "tokenId",
          "type": "uint256"
        }
      ],
      "name": "getApproved",
      "outputs": [
        {
          "internalType": "address",
          "name": "",
          "type": "address"
        }
      ],
      "stateMutability": "view",
      "type": "function"
    },
    {
      "inputs": [
        {
          "internalType": "address",
          "name": "owner",
          "type": "address"
        },
        {
          "internalType": "address",
          "name": "operator",
          "type": "address"
        }
      ],
      "name": "isApprovedForAll",
      "outputs": [
        {
          "internalType": "bool",
          "name": "",
          "type": "bool"
        }
      ],
      "stateMutability": "view",
      "type": "function"
    },
    {
      "inputs": [],
      "name": "name",
      "outputs": [
        {
          "internalType": "string",
          "name": "",
          "type": "string"
        }
      ],
      "stateMutability": "view",
      "type": "function"
    },
    {
      "inputs": [
        {
          "internalType": "uint256",
          "name": "tokenId",
          "type": "uint256"
        }
      ],
      "name": "ownerOf",
      "outputs": [
        {
          "internalType": "address",
          "name": "",
          "type": "address"
        }
      ],
      "stateMutability": "view",
      "type": "function"
    },
    {
      "inputs": [
        {
          "internalType": "address",
          "name": "from",
          "type": "address"
        },
        {
          "internalType": "address",
          "name": "to",
          "type": "address"
        },
        {
          "internalType": "uint256",
          "name": "tokenId",
          "type": "uint256"
        }
      ],
      "name": "safeTransferFrom",
      "outputs": [],
      "stateMutability": "nonpayable",
      "type": "function"
    },
    {
      "inputs": [
        {
          "internalType": "address",
          "name": "from",
          "type": "address"
        },
        {
          "internalType": "address",
          "name": "to",
          "type": "address"
        },
        {
          "internalType": "uint256",
          "name": "tokenId",
          "type": "uint256"
        },
        {
          "internalType": "bytes",
          "name": "_data",
          "type": "bytes"
        }
      ],
      "name": "safeTransferFrom",
      "outputs": [],
      "stateMutability": "nonpayable",
      "type": "function"
    },
    {
      "inputs": [
        {
          "internalType": "address",
          "name": "operator",
          "type": "address"
        },
        {
          "internalType": "bool",
          "name": "approved",
          "type": "bool"
        }
      ],
      "name": "setApprovalForAll",
      "outputs": [],
      "stateMutability": "nonpayable",
      "type": "function"
    },
    {
      "inputs": [
        {
          "internalType": "bytes4",
          "name": "interfaceId",
          "type": "bytes4"
        }
      ],
      "name": "supportsInterface",
      "outputs": [
        {
          "internalType": "bool",
          "name": "",
          "type": "bool"
        }
      ],
      "stateMutability": "view",
      "type": "function"
    },
    {
      "inputs": [
        {
          "internalType": "string",
          "name": "_svg",
          "type": "string"
        }
      ],
      "name": "svgToImageURI",
      "outputs": [
        {
          "internalType": "string",
          "name": "",
          "type": "string"
        }
      ],
      "stateMutability": "pure",
      "type": "function"
    },
    {
      "inputs": [],
      "name": "symbol",
      "outputs": [
        {
          "internalType": "string",
          "name": "",
          "type": "string"
        }
      ],
      "stateMutability": "view",
      "type": "function"
    },
    {
      "inputs": [],
      "name": "tokenCounter",
      "outputs": [
        {
          "internalType": "uint256",
          "name": "",
          "type": "uint256"
        }
      ],
      "stateMutability": "view",
      "type": "function"
    },
    {
      "inputs": [
        {
          "internalType": "uint256",
          "name": "tokenId",
          "type": "uint256"
        }
      ],
      "name": "tokenURI",
      "outputs": [
        {
          "internalType": "string",
          "name": "",
          "type": "string"
        }
      ],
      "stateMutability": "view",
      "type": "function"
    },
    {
      "inputs": [
        {
          "internalType": "address",
          "name": "from",
          "type": "address"
        },
        {
          "internalType": "address",
          "name": "to",
          "type": "address"
        },
        {
          "internalType": "uint256",
          "name": "tokenId",
          "type": "uint256"
        }
      ],
      "name": "transferFrom",
      "outputs": [],
      "stateMutability": "nonpayable",
      "type": "function"
    }
  ],
  "transactionHash": "0x55ae170305a85adc6a94680888ce3d8979f99012bbce96f295cca3a38fa3375a",
  "args": [],
  "numDeployments": 1,
  "solcInputHash": "20640cb72e7141d4ddcfabe85cce7119",
  "bytecode": "0x60806040523480156200001157600080fd5b506040518060400160405280600681526020017f5356474e465400000000000000000000000000000000000000000000000000008152506040518060400160405280600681526020017f7376674e46540000000000000000000000000000000000000000000000000000815250816000908051906020019062000096929190620000c0565b508060019080519060200190620000af929190620000c0565b5050506000600781905550620001d5565b828054620000ce9062000170565b90600052602060002090601f016020900481019282620000f257600085556200013e565b82601f106200010d57805160ff19168380011785556200013e565b828001600101855582156200013e579182015b828111156200013d57825182559160200191906001019062000120565b5b5090506200014d919062000151565b5090565b5b808211156200016c57600081600090555060010162000152565b5090565b600060028204905060018216806200018957607f821691505b60208210811415620001a0576200019f620001a6565b5b50919050565b7f4e487b7100000000000000000000000000000000000000000000000000000000600052602260045260246000fd5b6130d280620001e56000396000f3fe608060405234801561001057600080fd5b506004361061010b5760003560e01c806370a08231116100a2578063b6a46b3b11610071578063b6a46b3b146102dc578063b88d4fde146102f8578063c87b56dd14610314578063d082e38114610344578063e985e9c5146103625761010b565b806370a082311461024257806371aee1931461027257806395d89b41146102a2578063a22cb465146102c05761010b565b806323b872dd116100de57806323b872dd146101aa57806330d871c6146101c657806342842e0e146101f65780636352211e146102125761010b565b806301ffc9a71461011057806306fdde0314610140578063081812fc1461015e578063095ea7b31461018e575b600080fd5b61012a60048036038101906101259190611fc0565b610392565b6040516101379190612990565b60405180910390f35b610148610474565b60405161015591906129ab565b60405180910390f35b61017860048036038101906101739190612053565b610506565b6040516101859190612929565b60405180910390f35b6101a860048036038101906101a39190611f84565b61058b565b005b6101c460048036038101906101bf9190611e7e565b6106a3565b005b6101e060048036038101906101db9190612012565b610703565b6040516101ed91906129ab565b60405180910390f35b610210600480360381019061020b9190611e7e565b61079c565b005b61022c60048036038101906102279190612053565b6107bc565b6040516102399190612929565b60405180910390f35b61025c60048036038101906102579190611e19565b61086e565b6040516102699190612bcd565b60405180910390f35b61028c60048036038101906102879190612012565b610926565b60405161029991906129ab565b60405180910390f35b6102aa6109b3565b6040516102b791906129ab565b60405180910390f35b6102da60048036038101906102d59190611f48565b610a45565b005b6102f660048036038101906102f19190612012565b610a5b565b005b610312600480360381019061030d9190611ecd565b610ae1565b005b61032e60048036038101906103299190612053565b610b43565b60405161033b91906129ab565b60405180910390f35b61034c610c95565b6040516103599190612bcd565b60405180910390f35b61037c60048036038101906103779190611e42565b610c9b565b6040516103899190612990565b60405180910390f35b60007f80ac58cd000000000000000000000000000000000000000000000000000000007bffffffffffffffffffffffffffffffffffffffffffffffffffffffff1916827bffffffffffffffffffffffffffffffffffffffffffffffffffffffff1916148061045d57507f5b5e139f000000000000000000000000000000000000000000000000000000007bffffffffffffffffffffffffffffffffffffffffffffffffffffffff1916827bffffffffffffffffffffffffffffffffffffffffffffffffffffffff1916145b8061046d575061046c82610d2f565b5b9050919050565b60606000805461048390612e87565b80601f01602080910402602001604051908101604052809291908181526020018280546104af90612e87565b80156104fc5780601f106104d1576101008083540402835291602001916104fc565b820191906000526020600020905b8154815290600101906020018083116104df57829003601f168201915b5050505050905090565b600061051182610d99565b610550576040517f08c379a000000000000000000000000000000000000000000000000000000000815260040161054790612b2d565b60405180910390fd5b6004600083815260200190815260200160002060009054906101000a900473ffffffffffffffffffffffffffffffffffffffff169050919050565b6000610596826107bc565b90508073ffffffffffffffffffffffffffffffffffffffff168373ffffffffffffffffffffffffffffffffffffffff161415610607576040517f08c379a00000000000000000000000000000000000000000000000000000000081526004016105fe90612b8d565b60405180910390fd5b8073ffffffffffffffffffffffffffffffffffffffff16610626610e05565b73ffffffffffffffffffffffffffffffffffffffff16148061065557506106548161064f610e05565b610c9b565b5b610694576040517f08c379a000000000000000000000000000000000000000000000000000000000815260040161068b90612a6d565b60405180910390fd5b61069e8383610e0d565b505050565b6106b46106ae610e05565b82610ec6565b6106f3576040517f08c379a00000000000000000000000000000000000000000000000000000000081526004016106ea90612bad565b60405180910390fd5b6106fe838383610fa4565b505050565b606060006040518060400160405280601a81526020017f646174613a696d6167652f7376672b786d6c3b6261736536342c000000000000815250905060006107698460405160200161075591906128a0565b604051602081830303815290604052611200565b9050600082826040516020016107809291906128b7565b6040516020818303038152906040529050809350505050919050565b6107b783838360405180602001604052806000815250610ae1565b505050565b6000806002600084815260200190815260200160002060009054906101000a900473ffffffffffffffffffffffffffffffffffffffff169050600073ffffffffffffffffffffffffffffffffffffffff168173ffffffffffffffffffffffffffffffffffffffff161415610865576040517f08c379a000000000000000000000000000000000000000000000000000000000815260040161085c90612aad565b60405180910390fd5b80915050919050565b60008073ffffffffffffffffffffffffffffffffffffffff168273ffffffffffffffffffffffffffffffffffffffff1614156108df576040517f08c379a00000000000000000000000000000000000000000000000000000000081526004016108d690612a8d565b60405180910390fd5b600360008373ffffffffffffffffffffffffffffffffffffffff1673ffffffffffffffffffffffffffffffffffffffff168152602001908152602001600020549050919050565b606060006040518060400160405280601d81526020017f646174613a6170706c69636174696f6e2f6a736f6e3b6261736536342c00000081525090508061098b8460405160200161097791906128db565b604051602081830303815290604052611200565b60405160200161099c9291906128b7565b604051602081830303815290604052915050919050565b6060600180546109c290612e87565b80601f01602080910402602001604051908101604052809291908181526020018280546109ee90612e87565b8015610a3b5780601f10610a1057610100808354040283529160200191610a3b565b820191906000526020600020905b815481529060010190602001808311610a1e57829003601f168201915b5050505050905090565b610a57610a50610e05565b838361139f565b5050565b610a673360075461150c565b6000610a7282610703565b90506000610a7f82610926565b9050610a8d6007548261152a565b6007547ff5acc616aa8ecd00e5d76674d7812f9c3c3571d662c9fba4499deefa6d0be12d82604051610abf91906129ab565b60405180910390a26001600754610ad69190612cbc565b600781905550505050565b610af2610aec610e05565b83610ec6565b610b31576040517f08c379a0000000000000000000000000000000000000000000000000000000008152600401610b2890612bad565b60405180910390fd5b610b3d8484848461159e565b50505050565b6060610b4e82610d99565b610b8d576040517f08c379a0000000000000000000000000000000000000000000000000000000008152600401610b8490612b0d565b60405180910390fd5b6000600660008481526020019081526020016000208054610bad90612e87565b80601f0160208091040260200160405190810160405280929190818152602001828054610bd990612e87565b8015610c265780601f10610bfb57610100808354040283529160200191610c26565b820191906000526020600020905b815481529060010190602001808311610c0957829003601f168201915b505050505090506000610c376115fa565b9050600081511415610c4d578192505050610c90565b600082511115610c82578082604051602001610c6a9291906128b7565b60405160208183030381529060405292505050610c90565b610c8b84611611565b925050505b919050565b60075481565b6000600560008473ffffffffffffffffffffffffffffffffffffffff1673ffffffffffffffffffffffffffffffffffffffff16815260200190815260200160002060008373ffffffffffffffffffffffffffffffffffffffff1673ffffffffffffffffffffffffffffffffffffffff16815260200190815260200160002060009054906101000a900460ff16905092915050565b60007f01ffc9a7000000000000000000000000000000000000000000000000000000007bffffffffffffffffffffffffffffffffffffffffffffffffffffffff1916827bffffffffffffffffffffffffffffffffffffffffffffffffffffffff1916149050919050565b60008073ffffffffffffffffffffffffffffffffffffffff166002600084815260200190815260200160002060009054906101000a900473ffffffffffffffffffffffffffffffffffffffff1673ffffffffffffffffffffffffffffffffffffffff1614159050919050565b600033905090565b816004600083815260200190815260200160002060006101000a81548173ffffffffffffffffffffffffffffffffffffffff021916908373ffffffffffffffffffffffffffffffffffffffff160217905550808273ffffffffffffffffffffffffffffffffffffffff16610e80836107bc565b73ffffffffffffffffffffffffffffffffffffffff167f8c5be1e5ebec7d5bd14f71427d1e84f3dd0314c0f7b2291e5b200ac8c7c3b92560405160405180910390a45050565b6000610ed182610d99565b610f10576040517f08c379a0000000000000000000000000000000000000000000000000000000008152600401610f0790612a4d565b60405180910390fd5b6000610f1b836107bc565b90508073ffffffffffffffffffffffffffffffffffffffff168473ffffffffffffffffffffffffffffffffffffffff161480610f8a57508373ffffffffffffffffffffffffffffffffffffffff16610f7284610506565b73ffffffffffffffffffffffffffffffffffffffff16145b80610f9b5750610f9a8185610c9b565b5b91505092915050565b8273ffffffffffffffffffffffffffffffffffffffff16610fc4826107bc565b73ffffffffffffffffffffffffffffffffffffffff161461101a576040517f08c379a000000000000000000000000000000000000000000000000000000000815260040161101190612b4d565b60405180910390fd5b600073ffffffffffffffffffffffffffffffffffffffff168273ffffffffffffffffffffffffffffffffffffffff16141561108a576040517f08c379a000000000000000000000000000000000000000000000000000000000815260040161108190612a0d565b60405180910390fd5b6110958383836116b8565b6110a0600082610e0d565b6001600360008573ffffffffffffffffffffffffffffffffffffffff1673ffffffffffffffffffffffffffffffffffffffff16815260200190815260200160002060008282546110f09190612d9d565b925050819055506001600360008473ffffffffffffffffffffffffffffffffffffffff1673ffffffffffffffffffffffffffffffffffffffff16815260200190815260200160002060008282546111479190612cbc565b92505081905550816002600083815260200190815260200160002060006101000a81548173ffffffffffffffffffffffffffffffffffffffff021916908373ffffffffffffffffffffffffffffffffffffffff160217905550808273ffffffffffffffffffffffffffffffffffffffff168473ffffffffffffffffffffffffffffffffffffffff167fddf252ad1be2c89b69c2b068fc378daa952ba7f163c4a11628f55a4df523b3ef60405160405180910390a4505050565b60606000825114156112235760405180602001604052806000815250905061139a565b600060405180606001604052806040815260200161305d60409139905060006003600285516112529190612cbc565b61125c9190612d12565b60046112689190612d43565b905060006020826112799190612cbc565b67ffffffffffffffff8111156112b8577f4e487b7100000000000000000000000000000000000000000000000000000000600052604160045260246000fd5b6040519080825280601f01601f1916602001820160405280156112ea5781602001600182028036833780820191505090505b509050818152600183018586518101602084015b81831015611359576003830192508251603f8160121c168501518253600182019150603f81600c1c168501518253600182019150603f8160061c168501518253600182019150603f81168501518253600182019150506112fe565b60038951066001811461137357600281146113835761138e565b613d3d60f01b600283035261138e565b603d60f81b60018303525b50505050508093505050505b919050565b8173ffffffffffffffffffffffffffffffffffffffff168373ffffffffffffffffffffffffffffffffffffffff16141561140e576040517f08c379a000000000000000000000000000000000000000000000000000000000815260040161140590612a2d565b60405180910390fd5b80600560008573ffffffffffffffffffffffffffffffffffffffff1673ffffffffffffffffffffffffffffffffffffffff16815260200190815260200160002060008473ffffffffffffffffffffffffffffffffffffffff1673ffffffffffffffffffffffffffffffffffffffff16815260200190815260200160002060006101000a81548160ff0219169083151502179055508173ffffffffffffffffffffffffffffffffffffffff168373ffffffffffffffffffffffffffffffffffffffff167f17307eab39ab6107e8899845ad3d59bd9653f200f220920489ca2b5937696c31836040516114ff9190612990565b60405180910390a3505050565b6115268282604051806020016040528060008152506116bd565b5050565b61153382610d99565b611572576040517f08c379a000000000000000000000000000000000000000000000000000000000815260040161156990612acd565b60405180910390fd5b80600660008481526020019081526020016000209080519060200190611599929190611c3d565b505050565b6115a9848484610fa4565b6115b584848484611718565b6115f4576040517f08c379a00000000000000000000000000000000000000000000000000000000081526004016115eb906129cd565b60405180910390fd5b50505050565b606060405180602001604052806000815250905090565b606061161c82610d99565b61165b576040517f08c379a000000000000000000000000000000000000000000000000000000000815260040161165290612b6d565b60405180910390fd5b60006116656115fa565b9050600081511161168557604051806020016040528060008152506116b0565b8061168f846118af565b6040516020016116a09291906128b7565b6040516020818303038152906040525b915050919050565b505050565b6116c78383611a5c565b6116d46000848484611718565b611713576040517f08c379a000000000000000000000000000000000000000000000000000000000815260040161170a906129cd565b60405180910390fd5b505050565b60006117398473ffffffffffffffffffffffffffffffffffffffff16611c2a565b156118a2578373ffffffffffffffffffffffffffffffffffffffff1663150b7a02611762610e05565b8786866040518563ffffffff1660e01b81526004016117849493929190612944565b602060405180830381600087803b15801561179e57600080fd5b505af19250505080156117cf57506040513d601f19601f820116820180604052508101906117cc9190611fe9565b60015b611852573d80600081146117ff576040519150601f19603f3d011682016040523d82523d6000602084013e611804565b606091505b5060008151141561184a576040517f08c379a0000000000000000000000000000000000000000000000000000000008152600401611841906129cd565b60405180910390fd5b805181602001fd5b63150b7a0260e01b7bffffffffffffffffffffffffffffffffffffffffffffffffffffffff1916817bffffffffffffffffffffffffffffffffffffffffffffffffffffffff1916149150506118a7565b600190505b949350505050565b606060008214156118f7576040518060400160405280600181526020017f30000000000000000000000000000000000000000000000000000000000000008152509050611a57565b600082905060005b6000821461192957808061191290612eb9565b915050600a826119229190612d12565b91506118ff565b60008167ffffffffffffffff81111561196b577f4e487b7100000000000000000000000000000000000000000000000000000000600052604160045260246000fd5b6040519080825280601f01601f19166020018201604052801561199d5781602001600182028036833780820191505090505b5090505b60008514611a50576001826119b69190612d9d565b9150600a856119c59190612f02565b60306119d19190612cbc565b60f81b818381518110611a0d577f4e487b7100000000000000000000000000000000000000000000000000000000600052603260045260246000fd5b60200101907effffffffffffffffffffffffffffffffffffffffffffffffffffffffffffff1916908160001a905350600a85611a499190612d12565b94506119a1565b8093505050505b919050565b600073ffffffffffffffffffffffffffffffffffffffff168273ffffffffffffffffffffffffffffffffffffffff161415611acc576040517f08c379a0000000000000000000000000000000000000000000000000000000008152600401611ac390612aed565b60405180910390fd5b611ad581610d99565b15611b15576040517f08c379a0000000000000000000000000000000000000000000000000000000008152600401611b0c906129ed565b60405180910390fd5b611b21600083836116b8565b6001600360008473ffffffffffffffffffffffffffffffffffffffff1673ffffffffffffffffffffffffffffffffffffffff1681526020019081526020016000206000828254611b719190612cbc565b92505081905550816002600083815260200190815260200160002060006101000a81548173ffffffffffffffffffffffffffffffffffffffff021916908373ffffffffffffffffffffffffffffffffffffffff160217905550808273ffffffffffffffffffffffffffffffffffffffff16600073ffffffffffffffffffffffffffffffffffffffff167fddf252ad1be2c89b69c2b068fc378daa952ba7f163c4a11628f55a4df523b3ef60405160405180910390a45050565b600080823b905060008111915050919050565b828054611c4990612e87565b90600052602060002090601f016020900481019282611c6b5760008555611cb2565b82601f10611c8457805160ff1916838001178555611cb2565b82800160010185558215611cb2579182015b82811115611cb1578251825591602001919060010190611c96565b5b509050611cbf9190611cc3565b5090565b5b80821115611cdc576000816000905550600101611cc4565b5090565b6000611cf3611cee84612c19565b612be8565b905082815260208101848484011115611d0b57600080fd5b611d16848285612e45565b509392505050565b6000611d31611d2c84612c49565b612be8565b905082815260208101848484011115611d4957600080fd5b611d54848285612e45565b509392505050565b600081359050611d6b81613000565b92915050565b600081359050611d8081613017565b92915050565b600081359050611d958161302e565b92915050565b600081519050611daa8161302e565b92915050565b600082601f830112611dc157600080fd5b8135611dd1848260208601611ce0565b91505092915050565b600082601f830112611deb57600080fd5b8135611dfb848260208601611d1e565b91505092915050565b600081359050611e1381613045565b92915050565b600060208284031215611e2b57600080fd5b6000611e3984828501611d5c565b91505092915050565b60008060408385031215611e5557600080fd5b6000611e6385828601611d5c565b9250506020611e7485828601611d5c565b9150509250929050565b600080600060608486031215611e9357600080fd5b6000611ea186828701611d5c565b9350506020611eb286828701611d5c565b9250506040611ec386828701611e04565b9150509250925092565b60008060008060808587031215611ee357600080fd5b6000611ef187828801611d5c565b9450506020611f0287828801611d5c565b9350506040611f1387828801611e04565b925050606085013567ffffffffffffffff811115611f3057600080fd5b611f3c87828801611db0565b91505092959194509250565b60008060408385031215611f5b57600080fd5b6000611f6985828601611d5c565b9250506020611f7a85828601611d71565b9150509250929050565b60008060408385031215611f9757600080fd5b6000611fa585828601611d5c565b9250506020611fb685828601611e04565b9150509250929050565b600060208284031215611fd257600080fd5b6000611fe084828501611d86565b91505092915050565b600060208284031215611ffb57600080fd5b600061200984828501611d9b565b91505092915050565b60006020828403121561202457600080fd5b600082013567ffffffffffffffff81111561203e57600080fd5b61204a84828501611dda565b91505092915050565b60006020828403121561206557600080fd5b600061207384828501611e04565b91505092915050565b61208581612dd1565b82525050565b61209481612de3565b82525050565b60006120a582612c79565b6120af8185612c8f565b93506120bf818560208601612e54565b6120c881612fef565b840191505092915050565b60006120de82612c84565b6120e88185612ca0565b93506120f8818560208601612e54565b61210181612fef565b840191505092915050565b600061211782612c84565b6121218185612cb1565b9350612131818560208601612e54565b80840191505092915050565b600061214a603283612ca0565b91507f4552433732313a207472616e7366657220746f206e6f6e20455243373231526560008301527f63656976657220696d706c656d656e74657200000000000000000000000000006020830152604082019050919050565b60006121b0601c83612ca0565b91507f4552433732313a20746f6b656e20616c7265616479206d696e746564000000006000830152602082019050919050565b60006121f0601483612cb1565b91507f7b226e616d65223a2022535647204e4654222c200000000000000000000000006000830152601482019050919050565b6000612230602483612ca0565b91507f4552433732313a207472616e7366657220746f20746865207a65726f2061646460008301527f72657373000000000000000000000000000000000000000000000000000000006020830152604082019050919050565b6000612296601983612ca0565b91507f4552433732313a20617070726f766520746f2063616c6c6572000000000000006000830152602082019050919050565b60006122d6602c83612ca0565b91507f4552433732313a206f70657261746f7220717565727920666f72206e6f6e657860008301527f697374656e7420746f6b656e00000000000000000000000000000000000000006020830152604082019050919050565b600061233c603883612ca0565b91507f4552433732313a20617070726f76652063616c6c6572206973206e6f74206f7760008301527f6e6572206e6f7220617070726f76656420666f7220616c6c00000000000000006020830152604082019050919050565b60006123a2602a83612ca0565b91507f4552433732313a2062616c616e636520717565727920666f7220746865207a6560008301527f726f2061646472657373000000000000000000000000000000000000000000006020830152604082019050919050565b6000612408602983612ca0565b91507f4552433732313a206f776e657220717565727920666f72206e6f6e657869737460008301527f656e7420746f6b656e00000000000000000000000000000000000000000000006020830152604082019050919050565b600061246e602e83612ca0565b91507f45524337323155524953746f726167653a2055524920736574206f66206e6f6e60008301527f6578697374656e7420746f6b656e0000000000000000000000000000000000006020830152604082019050919050565b60006124d4600283612cb1565b91507f227d0000000000000000000000000000000000000000000000000000000000006000830152600282019050919050565b6000612514602083612ca0565b91507f4552433732313a206d696e7420746f20746865207a65726f20616464726573736000830152602082019050919050565b6000612554603183612ca0565b91507f45524337323155524953746f726167653a2055524920717565727920666f722060008301527f6e6f6e6578697374656e7420746f6b656e0000000000000000000000000000006020830152604082019050919050565b60006125ba602c83612ca0565b91507f4552433732313a20617070726f76656420717565727920666f72206e6f6e657860008301527f697374656e7420746f6b656e00000000000000000000000000000000000000006020830152604082019050919050565b6000612620602983612ca0565b91507f4552433732313a207472616e73666572206f6620746f6b656e2074686174206960008301527f73206e6f74206f776e00000000000000000000000000000000000000000000006020830152604082019050919050565b6000612686602f83612ca0565b91507f4552433732314d657461646174613a2055524920717565727920666f72206e6f60008301527f6e6578697374656e7420746f6b656e00000000000000000000000000000000006020830152604082019050919050565b60006126ec601283612cb1565b91507f2261747472696275746573223a2022222c2000000000000000000000000000006000830152601282019050919050565b600061272c602783612cb1565b91507f226465736372697074696f6e223a2022416e204e4654206261736564206f6e2060008301527f53564721222c20000000000000000000000000000000000000000000000000006020830152602782019050919050565b6000612792602183612ca0565b91507f4552433732313a20617070726f76616c20746f2063757272656e74206f776e6560008301527f72000000000000000000000000000000000000000000000000000000000000006020830152604082019050919050565b60006127f8603183612ca0565b91507f4552433732313a207472616e736665722063616c6c6572206973206e6f74206f60008301527f776e6572206e6f7220617070726f7665640000000000000000000000000000006020830152604082019050919050565b600061285e600a83612cb1565b91507f22696d616765223a2022000000000000000000000000000000000000000000006000830152600a82019050919050565b61289a81612e3b565b82525050565b60006128ac828461210c565b915081905092915050565b60006128c3828561210c565b91506128cf828461210c565b91508190509392505050565b60006128e6826121e3565b91506128f18261271f565b91506128fc826126df565b915061290782612851565b9150612913828461210c565b915061291e826124c7565b915081905092915050565b600060208201905061293e600083018461207c565b92915050565b6000608082019050612959600083018761207c565b612966602083018661207c565b6129736040830185612891565b8181036060830152612985818461209a565b905095945050505050565b60006020820190506129a5600083018461208b565b92915050565b600060208201905081810360008301526129c581846120d3565b905092915050565b600060208201905081810360008301526129e68161213d565b9050919050565b60006020820190508181036000830152612a06816121a3565b9050919050565b60006020820190508181036000830152612a2681612223565b9050919050565b60006020820190508181036000830152612a4681612289565b9050919050565b60006020820190508181036000830152612a66816122c9565b9050919050565b60006020820190508181036000830152612a868161232f565b9050919050565b60006020820190508181036000830152612aa681612395565b9050919050565b60006020820190508181036000830152612ac6816123fb565b9050919050565b60006020820190508181036000830152612ae681612461565b9050919050565b60006020820190508181036000830152612b0681612507565b9050919050565b60006020820190508181036000830152612b2681612547565b9050919050565b60006020820190508181036000830152612b46816125ad565b9050919050565b60006020820190508181036000830152612b6681612613565b9050919050565b60006020820190508181036000830152612b8681612679565b9050919050565b60006020820190508181036000830152612ba681612785565b9050919050565b60006020820190508181036000830152612bc6816127eb565b9050919050565b6000602082019050612be26000830184612891565b92915050565b6000604051905081810181811067ffffffffffffffff82111715612c0f57612c0e612fc0565b5b8060405250919050565b600067ffffffffffffffff821115612c3457612c33612fc0565b5b601f19601f8301169050602081019050919050565b600067ffffffffffffffff821115612c6457612c63612fc0565b5b601f19601f8301169050602081019050919050565b600081519050919050565b600081519050919050565b600082825260208201905092915050565b600082825260208201905092915050565b600081905092915050565b6000612cc782612e3b565b9150612cd283612e3b565b9250827fffffffffffffffffffffffffffffffffffffffffffffffffffffffffffffffff03821115612d0757612d06612f33565b5b828201905092915050565b6000612d1d82612e3b565b9150612d2883612e3b565b925082612d3857612d37612f62565b5b828204905092915050565b6000612d4e82612e3b565b9150612d5983612e3b565b9250817fffffffffffffffffffffffffffffffffffffffffffffffffffffffffffffffff0483118215151615612d9257612d91612f33565b5b828202905092915050565b6000612da882612e3b565b9150612db383612e3b565b925082821015612dc657612dc5612f33565b5b828203905092915050565b6000612ddc82612e1b565b9050919050565b60008115159050919050565b60007fffffffff0000000000000000000000000000000000000000000000000000000082169050919050565b600073ffffffffffffffffffffffffffffffffffffffff82169050919050565b6000819050919050565b82818337600083830152505050565b60005b83811015612e72578082015181840152602081019050612e57565b83811115612e81576000848401525b50505050565b60006002820490506001821680612e9f57607f821691505b60208210811415612eb357612eb2612f91565b5b50919050565b6000612ec482612e3b565b91507fffffffffffffffffffffffffffffffffffffffffffffffffffffffffffffffff821415612ef757612ef6612f33565b5b600182019050919050565b6000612f0d82612e3b565b9150612f1883612e3b565b925082612f2857612f27612f62565b5b828206905092915050565b7f4e487b7100000000000000000000000000000000000000000000000000000000600052601160045260246000fd5b7f4e487b7100000000000000000000000000000000000000000000000000000000600052601260045260246000fd5b7f4e487b7100000000000000000000000000000000000000000000000000000000600052602260045260246000fd5b7f4e487b7100000000000000000000000000000000000000000000000000000000600052604160045260246000fd5b6000601f19601f8301169050919050565b61300981612dd1565b811461301457600080fd5b50565b61302081612de3565b811461302b57600080fd5b50565b61303781612def565b811461304257600080fd5b50565b61304e81612e3b565b811461305957600080fd5b5056fe4142434445464748494a4b4c4d4e4f505152535455565758595a6162636465666768696a6b6c6d6e6f707172737475767778797a303132333435363738392b2fa264697066735822122079aaf9a87b3d31be10f887f72b4d961576fd52c911a7be2146e25846f684988064736f6c63430008000033",
  "devdoc": {
    "kind": "dev",
    "methods": {
      "approve(address,uint256)": {
        "details": "See {IERC721-approve}."
      },
      "balanceOf(address)": {
        "details": "See {IERC721-balanceOf}."
      },
      "getApproved(uint256)": {
        "details": "See {IERC721-getApproved}."
      },
      "isApprovedForAll(address,address)": {
        "details": "See {IERC721-isApprovedForAll}."
      },
      "name()": {
        "details": "See {IERC721Metadata-name}."
      },
      "ownerOf(uint256)": {
        "details": "See {IERC721-ownerOf}."
      },
      "safeTransferFrom(address,address,uint256)": {
        "details": "See {IERC721-safeTransferFrom}."
      },
      "safeTransferFrom(address,address,uint256,bytes)": {
        "details": "See {IERC721-safeTransferFrom}."
      },
      "setApprovalForAll(address,bool)": {
        "details": "See {IERC721-setApprovalForAll}."
      },
      "supportsInterface(bytes4)": {
        "details": "See {IERC165-supportsInterface}."
      },
      "symbol()": {
        "details": "See {IERC721Metadata-symbol}."
      },
      "tokenURI(uint256)": {
        "details": "See {IERC721Metadata-tokenURI}."
      },
      "transferFrom(address,address,uint256)": {
        "details": "See {IERC721-transferFrom}."
      }
    },
    "version": 1
  },
  "userdoc": {
    "kind": "user",
    "methods": {},
    "version": 1
  },
  "storageLayout": {
    "storage": [
      {
        "astId": 25,
        "contract": "contracts/SVGNFT.sol:SVGNFT",
        "label": "_name",
        "offset": 0,
        "slot": "0",
        "type": "t_string_storage"
      },
      {
        "astId": 27,
        "contract": "contracts/SVGNFT.sol:SVGNFT",
        "label": "_symbol",
        "offset": 0,
        "slot": "1",
        "type": "t_string_storage"
      },
      {
        "astId": 31,
        "contract": "contracts/SVGNFT.sol:SVGNFT",
        "label": "_owners",
        "offset": 0,
        "slot": "2",
        "type": "t_mapping(t_uint256,t_address)"
      },
      {
        "astId": 35,
        "contract": "contracts/SVGNFT.sol:SVGNFT",
        "label": "_balances",
        "offset": 0,
        "slot": "3",
        "type": "t_mapping(t_address,t_uint256)"
      },
      {
        "astId": 39,
        "contract": "contracts/SVGNFT.sol:SVGNFT",
        "label": "_tokenApprovals",
        "offset": 0,
        "slot": "4",
        "type": "t_mapping(t_uint256,t_address)"
      },
      {
        "astId": 45,
        "contract": "contracts/SVGNFT.sol:SVGNFT",
        "label": "_operatorApprovals",
        "offset": 0,
        "slot": "5",
        "type": "t_mapping(t_address,t_mapping(t_address,t_bool))"
      },
      {
        "astId": 977,
        "contract": "contracts/SVGNFT.sol:SVGNFT",
        "label": "_tokenURIs",
        "offset": 0,
        "slot": "6",
        "type": "t_mapping(t_uint256,t_string_storage)"
      },
      {
        "astId": 1800,
        "contract": "contracts/SVGNFT.sol:SVGNFT",
        "label": "tokenCounter",
        "offset": 0,
        "slot": "7",
        "type": "t_uint256"
      }
    ],
    "types": {
      "t_address": {
        "encoding": "inplace",
        "label": "address",
        "numberOfBytes": "20"
      },
      "t_bool": {
        "encoding": "inplace",
        "label": "bool",
        "numberOfBytes": "1"
      },
      "t_mapping(t_address,t_bool)": {
        "encoding": "mapping",
        "key": "t_address",
        "label": "mapping(address => bool)",
        "numberOfBytes": "32",
        "value": "t_bool"
      },
      "t_mapping(t_address,t_mapping(t_address,t_bool))": {
        "encoding": "mapping",
        "key": "t_address",
        "label": "mapping(address => mapping(address => bool))",
        "numberOfBytes": "32",
        "value": "t_mapping(t_address,t_bool)"
      },
      "t_mapping(t_address,t_uint256)": {
        "encoding": "mapping",
        "key": "t_address",
        "label": "mapping(address => uint256)",
        "numberOfBytes": "32",
        "value": "t_uint256"
      },
      "t_mapping(t_uint256,t_address)": {
        "encoding": "mapping",
        "key": "t_uint256",
        "label": "mapping(uint256 => address)",
        "numberOfBytes": "32",
        "value": "t_address"
      },
      "t_mapping(t_uint256,t_string_storage)": {
        "encoding": "mapping",
        "key": "t_uint256",
        "label": "mapping(uint256 => string)",
        "numberOfBytes": "32",
        "value": "t_string_storage"
      },
      "t_string_storage": {
        "encoding": "bytes",
        "label": "string",
        "numberOfBytes": "32"
      },
      "t_uint256": {
        "encoding": "inplace",
        "label": "uint256",
        "numberOfBytes": "32"
      }
    }
  }
}